:1020000000800020752400005D2400005D24000095
:1020100000000000000000000000000000000000C0
:102020000000000000000000000000005D2400002F
:1020300000000000000000005D240000C924000032
:102040005D2400005D2400005D2400005D2400008C
:102050005D2400005D2400005D2400006124000078
:102060005D2400005D2400005D2400005D2400006C
:102070005D2400005D240000CD2300005D240000ED
:102080005D2400005D2400005D2400005D2400004C
:10209000000000005D2400005D2400005D240000BD
:1020A0005D2400005D2400005D2400005D2400002C
:1020B0000000000010B5064C2378002B07D1054B1B
:1020C000002B02D0044800E000BF0123237010BDA4
:1020D000A00000200000000064550000044B10B573
:1020E000002B03D00349044800E000BF10BDC046E8
:1020F00000000000A40000206455000070B5050039
:102100000E000024280002F07FFC4008A04217D9EE
:1021100060002A5C11005739C9B2392A01D8303A17
:10212000D1B2281840780300573BDBB2392802D8D7
:102130000300303BDBB209015B1833550134E1E7A2
:1021400070BD0000E12110B50A4C4902200000F0EA
:10215000C1FF200000F0C0FF0028FAD0E121064CAA
:10216000064A4902200000F095F8200000F003F92B
:1021700010BDC0469C040020140200201104000081
:1021800070B52A4C200000F06BF8294D00280ED0C5
:10219000200000F071F8274E02002749300002F0BD
:1021A00013FC002331002800B37000F054FC280019
:1021B00000F0FEFE002833DD280000F035FF1F4E42
:1021C0001F4B0A2801D00D282BD1002219682800A6
:1021D0001A60725400F044FC1A49280000F03BFCDD
:1021E0003100280000F037FC280000F039FC200006
:1021F00000F0C9F8200000F09AF8134D30002900D3
:10220000FFF77CFF300002F0FFFB290042082000AE
:1022100000F0F8FB200000F09AF8200000F0ABF886
:1022200070BD1A68511C1960B054F9E714020020FF
:102230009C040020BC000020945000000F010020EE
:102240001002002099500000BF00002000207047BD
:1022500010B50368014A1B6A984710BD13040000BB
:1022600010B5006903681B69984710BD10B5006977
:1022700003689B69984710BD10B5006903685B69E6
:10228000984710BD10B500690368DB68984710BD1A
:102290000120704770B5040080690D00160061626E
:1022A0002285002806DB012100F0D4FA0021A06974
:1022B00000F01CFBE069002806DB012100F0CAFAEF
:1022C0000121E06900F012FB00222069631CDA772B
:1022D0000368320029001B6A984770BD10B50400DE
:1022E000006903685B6A9847E069002806DB002103
:1022F00000F0FCFA0021A06900F0ACFAA069002807
:1023000006DB002100F0F2FA0021E06900F0A2FAF9
:1023100010BD10B5431CDB7F002B03D101224260AE
:10232000180010BD006903681B689847F9E710B5ED
:1023300004008069002806DB012100F0D7FAC823D9
:102340009B00013BFDD101230134E37710BD10B5A3
:10235000040000690368DB689847A069002806DB71
:10236000C8239B00013BFDD1002100F0BFFA0023F0
:102370000134E37710BDC06910B5002802DB0021ED
:1023800000F0B4FA10BDC06910B5002802DB0121CD
:1023900000F0ACFA10BD0000FA22094B92009A60DE
:1023A000084A002108321A60074A59601A610E2251
:1023B0005A6107329A61013ADA610133D97770477D
:1023C00014020020B45000004002002010B5024862
:1023D00002F04FF810BDC0464002002013B512496C
:1023E000124800F093FB1249124800F08FFB12498B
:1023F000124800F08BFB1249124800F087FB12498B
:10240000124800F083FB124C1249200000F07EFBC2
:1024100001230193023300930D220B3321000E4858
:1024200001F0BCFF13BDC046000800427C04002040
:10243000000C0042800400200010004284040020B0
:102440000014004288040020001800428C04002080
:1024500090040020001C004240020020FEE7000023
:10246000034B10B51B68002B00D0984710BDC04629
:102470009404002070B50F490F4CA14204D100F024
:102480008FF802F0DFF8FEE70C4D00238D42F6D006
:10249000CA18E818A24205D3094B8242EFD0094975
:1024A000002204E0006804331060F1E704C38B42AB
:1024B000FCD3E4E700000020A000002068550000E5
:1024C000A0000020D00A002010B500F066F8002817
:1024D00001D100F057F810BD014B18607047C0469D
:1024E00094040020014B18687047C04698040020EF
:1024F000F7B51348012284461249134C8E6863686D
:1025000005689B0E1340019288686268019F920ED5
:102510003A4067463F6893420ED1BD420CD1864295
:102520000AD35B19FA254868AD00861B07486B4340
:102530007043000DC018FEBD3D0013000600E3E728
:102540009804002010E000E000ED00E05555000088
:1025500070B5041E10D0FFF7CBFF050000F01CF88B
:10256000FFF7C6FF054B401B9842F7D9FA23013C01
:102570009B00ED18002CF3D170BDC046E7030000AE
:102580007047000010B5034A13680133136000F070
:1025900081FA10BD980400207047002070470000A9
:1025A0001E2270B546484749436893431C3A13437B
:1025B000436008238C6923438B61434C434B9C82CB
:1025C0009C8A14439C82DC681442FCD00124404A5B
:1025D00014701578254203D055786DB2002DF8DBC4
:1025E00001249460547864B2002CFBDB394C5460B5
:1025F000547864B2002CFBDB8224E40154805478CC
:1026000064B2002CFBDB02249C840E34DD6825427E
:10261000FCD0314CDC621024DD682542FCD09D8C5E
:102620002E4C2C439C841024DD682542FCD00224CF
:102630009D8C80262C439C844024DD683542FCD050
:10264000DD682542F9D01024DD682542FCD0002445
:102650009460547864B2002CFBDB214C54605478B5
:1026600064B2002CFBDB1C6A1E4D2C4080251C62D2
:102670001C6AAC431C62032393601B4B536053786A
:102680005BB2002BFBDB0023FF240B72174A4B725B
:102690008B72CB72164B1A60164B174A1B68116867
:1026A0009A065B01C90E2340520F12020B431343DB
:1026B000124A1385802342681343436070BDC046AD
:1026C00000400041000400400C06000000080040EB
:1026D000000C004001050100B905FF7D040A00005F
:1026E00000070300FFFCFFFF03060100006CDC0293
:1026F0000000002024608000206080000040004234
:10270000FA21314B10B51868890001F0CDFF2F4B2D
:102710000138984256D82E492E4A4860C020136A84
:1027200000061B021B0A03431362002407238C606C
:102730000B608021136A09061B021B0A0B431362FC
:10274000FC22254B196A0A431A62FC22196A92017B
:102750000A431A62A022196AD2020A431A622000AE
:102760000021013400F076F80F2CF8D11B4B1C002F
:102770005A7852B2002AFBDB194A5A80194B1A00C8
:10278000597EC9090129FBD0E421C90099803F2164
:10279000D970537EDB09012BFBD0C02300205B01E5
:1027A0001361907000F024F863785BB2002BFBDBC0
:1027B0000D4B0E4A6380D379DB09012BFBD04123FB
:1027C000537010BDFEE7C04600000020FFFFFF0071
:1027D00010E000E000ED00E000040040000C0040CC
:1027E0001E4000000040004221400000004800421E
:1027F000164A00B51300517EC9090129FBD00138E2
:10280000042816D81969124A0A400F211A615A7809
:102810008A4301F03FFF0308060B03001100012269
:102820000A435A7000BD11000322F9E71100022289
:10283000F6E7F02311691B050B430F211361537851
:102840008B43190002230B435370EBE70040004217
:10285000FFFFFFF0182330B51D000400454308209A
:10286000204A55192856013014D0032912D80800DF
:102870006343D156D31801F00DFF02280E1B586890
:10288000CB010221184A9B181A18403211700122FC
:1028900082405A6030BD5868CB010621124A9B180D
:1028A0001A1840321170012282405A609A61F1E791
:1028B0005868CB0106210C4A9B181A184032117037
:1028C000012282405A605A61E4E75868CB01022134
:1028D000054A9B181A1840321170012282409A60F2
:1028E000D8E7C046E8500000004400411823F0B586
:1028F00008245843114A13181C5701341BD00126D1
:1029000035005F688356BD400D4ADB019A18906818
:1029100005420BD10C00601E8441D2194032107860
:1029200034400336A400B04320431070044A9B187F
:10293000002901D15D61F0BD9D61FCE7E850000018
:102940000044004118224243F8B52C4E0300B2184F
:10295000127A52B2140001320ED0481C00240C2806
:102960000AD801F097FE071F1F1F1F1F1F1F1F0BF5
:102970000B0B0B00012464422000F8BD092905D18E
:1029800000211800FFF766FF0024F5E70A2901D1AE
:102990000839F6E700240B29EED10A391800FFF7B1
:1029A00059FFE9E718225343F218556801202C001B
:1029B000F356134ADB016E089B18C9B204409E19F6
:1029C000002C0DD00F2430363278090122401143FB
:1029D000C9B25B19317040331A7810431870D3E7CD
:1029E00032000F27303216785B19BE433143117025
:1029F00040331A7810431870BEE7C046E850000014
:102A000000440041F7B506000D000C008B1801933F
:102A1000019B671B9C4207D0336821781B683000FC
:102A2000984701340028F3D13800FEBD70B504008A
:102A300008000D0001F0E8FF2368020029005B6830
:102A40002000984770BD10B50B1E02D0FFF7EEFFB7
:102A50000300180010BD10B5FFF7F5FF10BD000012
:102A600010B50249FFF7E2FF10BDC0464854000010
:102A700010B50400FFF784FD014B1C6010BDC0467B
:102A8000040000200122024B52421A607047C046E7
:102A900004000020164A10B51368591C26D0013BCB
:102AA0001360002B22D172B6124B134A04339342A7
:102AB00013D9124A01211000147D0C42FCD02021B0
:102AC000148BFF319B085B0021431183D3610C4BB6
:102AD00013800123027D1A42FCD0BFF34F8F094BB4
:102AE000094ADA60BFF34F8FC046FDE710BDC0460C
:102AF000040000200020000003020000004000410C
:102B000002A5FFFF00ED00E00400FA050160704738
:102B10009446F0B59E1E721E964162460568920765
:102B20002F6836063A4332432A60072505AC2478DD
:102B30000068A4012940214342680024022B00D0F0
:102B40005C03114321434160F0BD30B5C0250368EB
:102B5000AD031C6812052A402243C0240904A402C4
:102B600021401143196003685A6814435C6030BD0A
:102B70000123026811680B43136003681A68D207C7
:102B8000FCD4DA69D207F9D47047022302681168CD
:102B90000B4313600268D3699B07FCD4704703683A
:102BA0001A7ED20702D41A7E9207FCD57047002203
:102BB00003685A8370470368187E4007C00F704748
:102BC0000368187EC0097047802302685B42117E4B
:102BD0000B43137670470368588B8007C00F70470C
:102BE00002230268518B0B43538370470368187E9E
:102BF000C007C00F70470368188DC0B270470368E4
:102C00001A7ED207FCD589B20120198570470122AE
:102C100003689A757047012203681A7570470000AF
:102C20000368214A30B593422FD0204A93422FD0D7
:102C30001F4A93422FD01F4A93422FD01E4A9342DD
:102C40002FD01E4A93421FD10E23192201210325A2
:102C500099401B48C024016099082B40AB40FC35CB
:102C60009D4089000918A4000859A843C0259D402B
:102C70002B0003430B518023DB011A43114B5A8075
:102C80005A7852B2002AFBDB30BD09231422DDE75B
:102C90000A231522DAE70B231622D7E70C23172283
:102CA000D4E70D231822D1E700080042000C0042AF
:102CB000001000420014004200180042001C0042B4
:102CC00000E100E0000C0040F8B504000F00160021
:102CD0001D00FFF7A5FF2000FFF74AFF1C21BB00E6
:102CE0000B4071072268090C0B4313608423226890
:102CF0009375012F1AD11021012E00D008390C4BE9
:102D000069431868C00001F0CFFC07222168024027
:102D10008B895203DB04DB0C13438B812268030491
:102D20009089DB0C400B400318439081F8BDC046EE
:102D3000000000200020704770B50F26CB1D013920
:102D400002003240D5B22C0000093034092A00DDDF
:102D500007341C70013B8B42F2D170BD10B50C00E2
:102D60000B4B1868FFF7E8FF21000A4B0831186881
:102D7000FFF7E2FF2100084B10311868FFF7DCFF76
:102D80002100064B18311868FFF7D6FF202010BD30
:102D90000CA0800040A0800044A0800048A08000DB
:102DA00008B4024B9C46103808BC60475D2D0000FB
:102DB00070473F20704713B56B460268D9710733DF
:102DC000546819000122A04716BD000070B50A26FC
:102DD0000B7892B06E44023305000B703C22002148
:102DE000300001F02EFD394801AC0690384824210E
:102DF0000790062020776846364AA1742281364A19
:102E0000364BA281FD3AFF3A8018C17768462339D4
:102E10000630C17768460730C17702A8C17707201E
:102E2000F277032608316944C87703A9CE771021C9
:102E30002B366E443170092621851F3169440E708E
:102E40000CA9053E0E7033212380022369440B70C8
:102E500006360DA90E7022493536A1863B216E44F7
:102E6000307010A86274E27702703D3269446A449F
:102E70000B70137040210022E37023716371A37300
:102E800041336B44218719705A702B7DC039A37070
:102E9000A37263770133DBB2A3776A7D0B200D0049
:102EA00068441543C5773120684403703A23501CA9
:102EB0006B441870412302320A436B441A7021009C
:102EC0004222084800F070FF12B070BD10010424C7
:102ED000020605240904000001020000080B00009E
:102EE000070500000405002008B4024B9C4610387A
:102EF00008BC6047CD2D000070B5027D0B790C0039
:102F000000259A420BD10B784E78A12B09D1212EA6
:102F100005D107221F49204800F046FF013528004F
:102F200070BD212BFBD1202E2BD1072219491A4825
:102F300000F07CFE174B1A785978090211439A78F1
:102F400012041143DA7812060A439621C9008A4214
:102F50001DD1DB79DB071AD4FA20FFF789FD0021A8
:102F60000D4801F02DF80125232ED8D1E378A27861
:102F70001B021343094A00210748136001F020F89F
:102F8000CDE7222EEFD18A78024BDA71D2E7FFF734
:102F900079FDE4E70C000020040500200800002073
:102FA00008B4024B9C46103808BC6047F92E00005C
:102FB00010B5417D006A013100F070FD034B1B68C4
:102FC00001335A1E9341181810BDC046140000204A
:102FD00010B5417D006A023100F076FD10BD10B5DC
:102FE000417D006A023100F03DFD10BD70B50D005D
:102FF000417D0400130002312A00006A00F02AFE1D
:10300000002801D10123636070BD000010B5054C9C
:1030100023685A1C04D103685B6998470300206049
:10302000180010BD14000020074A0300106810B5F6
:10303000411C03D001235B42136010BD597D186A07
:10304000013100F0B7FDF8E71400002070470020C0
:1030500070470000FA239B0010B583600F4B0022DD
:10306000C3820300283383610D4B04004260C261B8
:103070001800443323610830631D21622060DA7731
:103080008323A362813BE3628033236300F0C2F8B1
:103090002100103100F092F8200010BD0302000062
:1030A0004C540000022110B5094B1A68437D5B01A6
:1030B000D318FF339C7A21439972437D0133DBB2ED
:1030C0005B01D3180122FF33997A0A439A7210BD2B
:1030D000BC0900207047000010B5FFF703FAF42385
:1030E000FF330024984207D9044B0A20DC79631E81
:1030F0009C41E4B2FFF72CFA200010BD0C00002028
:1031000010B502490248FFF7A5FF10BD04050020D5
:103110009C04002070B50E0000254468002C0BD0E4
:10312000236831005B6820009847002802DB2D18D7
:10313000E468F3E701256D42280070BD70B50D000D
:103140004468002C08D0236829009B682000984719
:10315000002802D1E468F4E7200070BD70B50D00CE
:1031600000264468002C09D02368290020001B6930
:10317000984736182D18F6B2E468F3E730002C7043
:1031800070BD70B50D004468002C08D0236829007C
:103190001B6820009847002802D1E468F4E720006B
:1031A00070BD70B50D004468002C06D02368200067
:1031B000DB6829009847E468F6E770BDF0B58C79C4
:1031C000457803002A190020072A1FDC5A6882422A
:1031D00016D159601A78C8790A7112184D711A708F
:1031E00000220B4DD0B284420FD98F6858789600D8
:1031F000F75986000130775101325870F2E702002A
:10320000D0680028FBD1D160E4E70120F0BDC046C2
:10321000DC0400200121064A10B5136805480B4064
:1032200004D18024640004804360116010BDC04656
:10323000D0040020D4040020704710B5040001F031
:1032400025FA200010BD0000F0B5822919D1C3B2C3
:10325000294D5A01AA189169284C80010C40C021BF
:103260008905214391612649083340187021506136
:1032700028685B011A5C8A43110030220A431A5401
:10328000F0BD0029FCD1C026C1B21B4C4B01E31894
:103290009A681A4DB6052A4032439A60194A80014D
:1032A00082185A600A000727246808325201115D0B
:1032B000B9430F000121394311559F6910493D4021
:1032C00040182E439E6158617020115D81430800B3
:1032D00010210143115599680B48A218084080211C
:1032E0004903014399609968890B890399604023D8
:1032F00011790B431371C3E7BC090020FFFFFF8F57
:1033000030050020F0060020FF3F00F0EFF31083AF
:1033100003600123436072B670470368002B02D13B
:1033200062B6BFF36F8F7047F7B50600FC36B3691E
:103330000400002B18D1B2277F00C55D6846FFF757
:10334000E5FF019BEDB2013B02D3E55DEDB2FAE78B
:1033500068460193FFF7E1FF002D01D10020FEBD7B
:10336000706E336EC01AFAE76846FFF7CFFFD822B7
:103370000025019B5200013B02D3A55CEDB2FAE7A8
:1033800068460193FFF7C9FF002DE7D0D6235B0005
:10339000E058043BE358E5E710B54468FC30436966
:1033A0000B48DBB25A01A21891680833084080210B
:1033B00049030143916091685B01890B8903916026
:1033C0002268D318402219790A431A7110BDC046E9
:1033D000FF3F00F0F7B50500FC356B694268DBB2D2
:1033E000190004000831106849014118C979C9075A
:1033F00011D55B01D21893689B049B0C0CD1200063
:10340000FFF7CAFF63681A686B69DBB208335B01B8
:10341000D3187F22DA71F7BDE969002923D16B66E1
:10342000230001266933FF33EE6168465360B227FB
:10343000FFF76CFF7F00B221019BFF31013B5A1C5B
:1034400038D0D822E6555200A25C581ED2B262543F
:10345000625C8446002A04D120000193FFF79CFFA0
:10346000E9E76346EBE7D621490063500023EB61AF
:1034700023001D33FF3353606846D826FFF746FF0D
:1034800001277600B221019BFF31013B5A1C11D06C
:10349000B222A7555200A25C581ED2B26254625C9E
:1034A0008446002A04D120000193FFF775FFE9E765
:1034B0006346EBE768460193FFF72FFFA2E7F7B5F6
:1034C000060068463400FFF721FF0027FF22019B1A
:1034D000FC34013B0DD3E0682169884204DBE768D6
:1034E0002069D71B3F18F4E72769E1687F1A013F7D
:1034F000EFE768460193FFF710FFA3696846002BCA
:1035000052D1FFF703FFB221019B4900013B5A1C36
:103510000CD0755C5A1EEDB2002D05D168460193A2
:10352000FFF7FBFE2800FEBD1300F0E7684601939D
:103530000025FFF7F2FEFF22236EBD4214D0616E1C
:10354000994211D9591CF3182166FF33587FE3685B
:1035500021690133C0B213408B4203D0E168711876
:103560000872E3600135E7E7626E9A42DAD1002320
:1035700023660133A3616846B224FFF7C7FE6400E7
:10358000B2220021019BFF32013B581CC6D03155AD
:10359000B05C5F1E002805D0B15430000193FFF7E6
:1035A000FBFEEDE73B00F0E7FFF7B0FED821019B03
:1035B0004900013B5A1C06D0755C5A1EEDB2002D25
:1035C000ACD01300F6E768460193FFF7A6FED623BA
:1035D000D4225B0000259C465200B358BD4203D064
:1035E00061467158994220D86246B2589A4299D1A0
:1035F000D42200235200B3506846A361D824FFF7B9
:1036000085FE6400B2220021019BFF32013B581C61
:1036100000D183E73155B05C5F1E002819D0B1544A
:1036200030000193FFF7B8FEECE7591CB150FF21C1
:10363000F3186933FF331878E368C0B201330B40E5
:1036400021698B4203D0E16871180872E36001358B
:10365000C3E73B00DBE710B50400FFF730FF2300B2
:10366000FC331969DA68914203D01B69E418207AA7
:1036700010BD01204042FBE710B50400FC34FFF709
:103680001EFFE0682369C01A01D50130FF3010BD6C
:10369000F0B585B0019200910500FFF710FF02A878
:1036A000FFF734FE01200024FF26039B40425A1EF0
:1036B000531C1FD02B00FC3301998C4218D2D968BF
:1036C0001F69C91B01D50131FF31002910D01969CB
:1036D000DF688C460100BC4506D019691F6969186E
:1036E00001373740097A1F61009F39550134E3E7FC
:1036F000013ADDE702A80392FFF70FFE200005B0B4
:10370000F0BD37B56B46DC1D00230D002370FFF7BD
:1037100081FD2100FFF7FEFC2B6818182860207837
:103720003EBD00002023F7B5474A0500D1690F20B0
:103730000B43D361012245490B7813430B70444B73
:1037400019788143197006211C7821431970414969
:103750000C7822430A701A7802401A706022197895
:103760000A431A703C4B3D4A5A805F78FF09FCD1EE
:103770003B48FEF7B1FE01233A4C3B4E2268300035
:1037800011780B43137080223900520001F059F870
:1037900022689378DB07FCD456621F26334B1B68E4
:1037A000590B980C9B01314030405B0FB14200D166
:1037B00005211F2800D10238072B00D1043B3140DE
:1037C0008901178D01912A4930400F4001993943F1
:1037D0001185118D0700B143080038431085118D04
:1037E0001803244B7F260B4003430C20138508232A
:1037F000D17881430B430321D3702268D3788B4364
:1038000001390B43D37022681378334013700423BB
:1038100022681678334313702268C1241389A400E8
:1038200083431548138103591B021B0A035180234C
:103830000360137811481943012311702B70002184
:10384000FFF748FCF7BDC046000400405844004163
:103850003C44004159440041000C00400640000037
:10386000D1410000BC090020C00900202460800074
:103870003FF8FFFFFF8FFFFF00E100E09C04002006
:103880000078002810D00121084B1B681A898A4350
:103890001A810822198B0A431A830422198B0A43BE
:1038A0001A830022024B1A607047C046BC090020F0
:1038B000B409002010B50F4A93699B0B9B039361D9
:1038C00013680222FF331A729879823A02439A717E
:1038D0001A7A9207FCD57F24074A2140937A080080
:1038E000A3431900802301439172917A5B420B43F9
:1038F000937210BDBC0900200050004110B50C00AF
:10390000FFF788FC2100FFF73CFC002804D1034AA4
:1039100093699B0B9B03936110BDC046BC090020BB
:10392000F7B50D00832A19D1CBB2404C5A01A21829
:1039300091693F48AD010840C0218905014391616B
:103940003C4920686D187021083355615B011A5C91
:103950008A43110040220A431A54F7BD022A5FD15C
:10396000354B8A00D058002802D003685B6998471D
:10397000DA20400000F086FE802204002B4E2F4B00
:103980004660036052000021083000F05AFF220018
:10399000B2210023FC324900D360556113611366E4
:1039A0009361D3615366635444316350043163506F
:1039B00004316354B221FF316354FF202B000340D4
:1039C0005901019371188F68194BAD003B40C02716
:1039D000BF051F438F600727019B366808335B01D3
:1039E000995DB9430F00032139439955230051696B
:1039F000666801401D334901FF3371184B606368ED
:103A000052691B68024052019B1801221B18997AC7
:103A100020000A439A72FFF7BFFC074BEC509CE76B
:103A200011002800FFF710FC97E7C046BC090020F2
:103A3000FFFFFF8F3005002008050020AC54000078
:103A400070B505000124064BA200D258002A06D00A
:103A5000210028000134FFF763FF0A2CF3D170BD69
:103A6000DC0400200B4BCAB20B488901C918530172
:103A7000C318596199690832890B890399610368F0
:103A800052019A180223D3715179823B0B4353712F
:103A90007047C04630050020BC090020084B8A0052
:103AA000D05810B5002803D003689B68984710BD14
:103AB000C9B2044B4901591888688004800CF6E7A4
:103AC00008050020BC09002010B50C00FFF7E6FF38
:103AD00000280CD0064BE4B21B68083464011C19A2
:103AE000802362795B42134363710223E37110BD4B
:103AF000BC090020F0B51C002A4B85B01B680700EC
:103B00000D000292002B4AD0274B8A00D058002883
:103B100008D0036822005B680299984704002000DF
:103B200005B0F0BD3800FFF7B9FF844204D9290081
:103B30003800FFF7B3FF04000121EBB21B4E0393E3
:103B40005B010193F21893689B0B9B039360019AAE
:103B5000336802989B18FF335A7A0A435A72144BFF
:103B6000A901C918220000F063FE002CD7D029005B
:103B70003800FFF793FF0028D1D14021039B326822
:103B800008335B01D3181879014319710121D971E8
:103B9000019BD318FF339A7A0A439A72BFE7012434
:103BA0006442BCE7B409002008050020BC090020DD
:103BB000F006002013B56B46DC1D22000123FFF741
:103BC00099FF012801D1207816BD01204042FBE772
:103BD00070B5CBB2124A13485C01890189180219E9
:103BE00051609168104D08330D40802149032943ED
:103BF000402591609168890B8903916001685A01A1
:103C00008A1816793543157195796D06FCD55B01D7
:103C1000C918CB79DB07FCD500198068C0B270BD2C
:103C2000F0060020BC090020FF3F00F070B50D0039
:103C300000211400FFF7CCFFA04200D92000002390
:103C40000349A34203D0CA5CEA540133F9E770BDCB
:103C5000F0060020F0B51E003A4B85B01B680F003F
:103C60000192002B35D08023DB019E4231D8002504
:103C7000354B8A01D3180293002E2CD0334B1B688E
:103C80000393FF233B401C0000930834039B640113
:103C90001C19A379DB0921D02D4B2E49186800F09F
:103CA00003FD2D4B1721584300F0FEFC2B4BE2790E
:103CB000920713D4DA5D002A01D10138F7D201222C
:103CC000DA55009B5A01214B9B189A69920B92037B
:103CD0009A6101256D42280005B0F0BD00221F4BFE
:103CE0003400DA553F2E09D9009B40245A01174B66
:103CF0009B188022996912060A439A612200019951
:103D0000029800F095FD009BA1045A010F4B890C0D
:103D10009B18029A2D195A619A69361B920B9203CD
:103D20000A439A61009B039A08335B01D31802226D
:103D3000DA715979823A0A435A71019B1B1901932E
:103D40009AE7C046B409002030050020BC090020D5
:103D50000000002040420F007011010025050020E6
:103D600070B50D001C000D4BAE01F61811003000AF
:103D7000220000F05DFDEDB209496D014D196E6143
:103D8000AB69084A20001340AB61AB69A2049B0BEE
:103D9000920C9B031343AB6170BDC04630050020FD
:103DA000BC090020FF3F00F0F7B5104B01901B78D5
:103DB0000F001500002B0CD10D4B16001C78002CA9
:103DC00009D00C4E0C4834882018641900F030FDDE
:103DD00034802800FEBD002EFBD03A1933000021AC
:103DE0000198FFF7BDFF2418361AF4E7B008002049
:103DF000B1090020B2090020B1080020F8B50F0079
:103E000016000024012A26D9100000F0FDFC050050
:103E1000380000F0F9FD0323022201304000287031
:103E20006B7096420DD9397800290AD0531CDBB249
:103E30000137A9549E4203D00232EC54D2B2F0E7CB
:103E4000320029000548FFF7AFFF441EA041C4B26D
:103E5000280000F0E3FC2000F8BDC0460405002067
:103E6000F0B50024012685B0184B0F0069461E707E
:103E700005000094FFF745FC154B01A90B806A3B38
:103E8000FF3BCB715A330B72009B8C7109334B8013
:103E90000E4B4E7108711C703A00092F0FD00D4F58
:103EA00009223E700C4E280000943480FFF77CFFFE
:103EB00069462800FFF725FC328808493C70280035
:103EC000FFF772FF012005B0F0BDC046B00800202A
:103ED00009020000B1090020B2090020B108002049
:103EE00070B5CE7892B005000C00022E0BD18B7904
:103EF000C9792E4809021943FFF7B2FF411E8841D4
:103F0000C0B212B070BDFFF785F92100FFF716F9B6
:103F1000002803D0C117081AC00FF2E7012E0ED1F6
:103F2000E279A37912021A432149112A3CD8D2B26C
:103F3000002A39D02800FFF737FF0120E1E7032EE0
:103F4000DFD1A378002B28D0022B08D1E279A37906
:103F5000120218491A432800FFF750FFD1E7012B3E
:103F600005D1E279A37912021A431349F3E7032B2F
:103F7000C7D10100412201A800F063FCFFF74AF914
:103F800001A9FFF7EBF8002805D0E279A379120226
:103F90001A4301A9DFE70378FFDEE279A379120271
:103FA0001A430649032AC2D90A78C3E70405002048
:103FB000E8540000C8540000DC540000D85400004D
:103FC000CBB204495B01C9188B699B0B9B038B61C6
:103FD0007047C046BC09002037B5050048780C0082
:103FE0000B2810D800F056FB061B0F2B0F40456125
:103FF000494C5A5D097801AA002906D10223118093
:104000002800FFF7ADFE01203EBD00231380284BA2
:104010001B78012B00D1137002230021F0E78A786E
:104020000023012A03D101AA1380224BF0E7204A82
:104030001370214A93699B0B9B039361E3E78C7890
:10404000012C06D100211B4B01AA1C70117023000A
:10405000D6E70120002CD7D1154B174A1870936969
:104060009B0B9B039361CFE789782800FFF722FC25
:10407000C9E72800FFF734FFC6E701230F4ACCE762
:104080000B780020DB06BFD12800FFF7D9FCA2780F
:104090000A4B0B481A60FFF705F8CAE70123094AE3
:1040A000BBE78A78074B1A60C3E70020ACE7C0463D
:1040B000240500202C050020BC090020B4090020A4
:1040C0009C040020B80900203B4BF7B51E78050082
:1040D000002E5FD1394C23689A8B12070DD5082228
:1040E00031009A833000FFF7AFF810222368FF33C6
:1040F000997A0A439A72324B1E6023689A8B520750
:1041000001D504229A83FF331A7A920603D520221E
:10411000597A0A435A721A7AD20623D56946080098
:10412000284AC0CAC0C0A268920B9203A260402273
:10413000587902435A7160230A7828001A422AD11A
:10414000FFF74AFF2368FF33002827D080229979A0
:1041500052420A439A711A7A520603D54022597A7A
:104160000A435A727F2601252368FF331E722F00EF
:10417000236808377F01DB19DB79002B07D0124B4E
:10418000AA00D05800280DD003681B689847013555
:10419000082DECD1F7BDFFF7B1FBD3E720210B4A87
:1041A0009171D8E7FFF736F82900FEF7FAFF236888
:1041B000DF19FE71EBE7C046B1090020BC09002001
:1041C000B4090020F006002008050020FF5000413F
:1041D00010B50248FFF778FF10BDC0460405002067
:1041E000014B024A1A607047BC0900200050004190
:1041F0000120704710B50368014A1B6A984710BD3B
:10420000130400000300FC33D9699A69914203D07A
:10421000DB69C018007D704701204042FBE710B504
:1042200004000069FEF7A4FC22000023FC32936125
:10423000D36186229200A4186360A36010BDF020B1
:1042400001403039484248417047F0231B01194072
:10425000802306209B0099420AD00133FF330130AE
:10426000994205D0802302385B00994200D000209B
:1042700070470F2001400020012903D00239481E59
:104280008141481C704700008923F0B5182685B08D
:1042900002919B000400C05C330008214343324D6F
:1042A0001700EB185956FEF74DFB304B0821E05C28
:1042B00033004343EB185956FEF744FB2C4BE25CAA
:1042C0000393022A09D11133E05CFF2805D00821AD
:1042D0004643AE197156FEF735FB8A26B600A05D3F
:1042E000FF2819D00121FEF7B5FA1822A35D214954
:1042F0005A43AB56AD18DB0158188B21890060502A
:104300001D4901225B188C218900635069688A402D
:104310008D21890062501A600122029B11002069E0
:10432000FEF7D2FC39002000FFF78FFF39000500AF
:104330002000FFF79EFF390006002000FFF77FFFF7
:1043400033000090290020690122FEF7E1FB0B4BAE
:104350002069E25C039BE15CFEF7F7FB2069FEF756
:1043600014FC05B0F0BDC046E85000002502000076
:1043700027020000184400411444004126020000B6
:10438000802210B504005200002100F05AFA2300E8
:104390000022FC335A6020009A6010BDF7B51D0062
:1043A00008AB1B780400009309AB1B78160001933F
:1043B00000234360FA239B008360114B0F000833F6
:1043C00003601430FFF7DCFF20001D30FF30FFF7E3
:1043D000D7FF89236A469B002761E654094B127870
:1043E000E554094B2000E2546A46084B1279E25426
:1043F0008A22293BFF3B9200A3541032A354FEBDF6
:10440000FC540000250200002602000027020000E4
:104410000300FC3358689B68C01A01D50130FF3097
:10442000704710B5040020001D30FF30FFF7F0FF8B
:104430000028F8D12069FEF7B2FB10BD10B514308A
:10444000FFF7E6FF10BD0300FC3359689A689142FC
:1044500004DB5A689868801AFF30704798685B6878
:10446000C01A0138F9E710B51D30FF30FFF7EBFF38
:1044700010BD10B504000069FEF7ADFB002805D0A3
:104480002069FEF7B8FB2069FEF7AAFB2069FEF75A
:1044900092FB002820D02069FEF7ADFB2200FC3201
:1044A0009369D1690133DBB28B4203D09169611802
:1044B000087593618A239B00E35CFF2B0CD02000DE
:1044C0001430FFF7C0FF092806DC8B238D229B00E8
:1044D0009200E358A2581A602069FEF787FB002873
:1044E0001AD020001D30FF30FFF792FF002822D0A5
:1044F00086239B00E31899685A68914218D08E2150
:104500009A684900A218515C9A680132D2B29A6046
:10451000C9B22069FEF773FB2069FEF751FB002842
:1045200005D02069FEF750FB2069FEF740FB10BD67
:1045300001214942ECE72069FEF76DFBECE7000042
:1045400070B5040000690D00FEF750FB00283ED155
:10455000FF2686239B00E3185A689968013232408F
:104560008A4223D1EFF31083DB0710D41E4B5B6824
:10457000DB05DB0DEDD0103B5BB2002B10DA0F2218
:104580001340083B9B08194A9B009B181B68206935
:10459000FEF72CFB0028DCD02000FFF76AFFD8E7ED
:1045A0009B08C033124A9B009B58F0E75A680132BF
:1045B00016409A68964205D08E215A684900A21882
:1045C00055545E602069FEF722FB012070BD20007B
:1045D0001D30FF30FFF71CFF0028B9D129002069EA
:1045E000FEF70DFBF1E7C04600ED00E01CED00E03A
:1045F00000E100E0030070B5FC33D9699A6904005A
:1046000091421AD0DA698218157DDA690132D2B284
:10461000DA618A239B00E35CFF2B0CD0200014306E
:10462000FFF711FF0A2806DD8C238D229B009200E4
:10463000E358A2581A60280070BD01256D42E8E7D2
:104640007047000010B5FEF75BF800F0B9F8FFF70F
:10465000F7FF0120FDF77CFF084C2000FFF762F810
:104660002000FFF70DF9FDF76DFDFDF789FD044B07
:10467000002BFAD000E000BFF7E7C0460405002099
:104680000000000010B500F0BFF810BD10B500F03C
:10469000C5F810BD02B4714649084900095C4900DB
:1046A0008E4402BC7047C046002243088B4274D33C
:1046B00003098B425FD3030A8B4244D3030B8B4223
:1046C00028D3030C8B420DD3FF22090212BA030C2C
:1046D0008B4202D31212090265D0030B8B4219D30D
:1046E00000E0090AC30B8B4201D3CB03C01A52412D
:1046F000830B8B4201D38B03C01A5241430B8B4275
:1047000001D34B03C01A5241030B8B4201D30B035D
:10471000C01A5241C30A8B4201D3CB02C01A524184
:10472000830A8B4201D38B02C01A5241430A8B4247
:1047300001D34B02C01A5241030A8B4201D30B0230
:10474000C01A5241CDD2C3098B4201D3CB01C01A4A
:10475000524183098B4201D38B01C01A5241430954
:104760008B4201D34B01C01A524103098B4201D342
:104770000B01C01A5241C3088B4201D3CB00C01AAF
:10478000524183088B4201D38B00C01A5241430827
:104790008B4201D34B00C01A5241411A00D201464C
:1047A000524110467047FFE701B5002000F006F8BF
:1047B00002BDC0460029F7D076E770477047C04673
:1047C00070B500260C4D0D4C641BA410A64209D1F7
:1047D000002600F053FC0A4D0A4C641BA410A642AC
:1047E00005D170BDB300EB5898470136EEE7B30032
:1047F000EB5898470136F2E77C0000207C0000204F
:104800007C0000209000002010B5034B01001868C8
:1048100000F06AF810BDC0461800002010B5034B28
:104820000100186800F016F810BDC04618000020FE
:10483000002310B59A4200D110BDCC5CC4540133A2
:10484000F8E703001218934200D170471970013342
:10485000F9E7000070B50500002910D00C1F23688F
:10486000002B00DAE418280000F0D5F81D4A136880
:10487000002B05D163601460280000F0CDF870BDF6
:10488000A34209D9216860188342F3D118685B6894
:1048900041182160EEE713005A68002A01D0A242B5
:1048A000F9D919685818A0420BD12068091858186E
:1048B00019608242E0D110685268411819605A604C
:1048C000DAE7A04202D90C232B60D5E721686018F3
:1048D000824203D1106852684118216062605C60B6
:1048E000CAE7C046C00A0020032370B5CD1C9D4313
:1048F000083506000C2D1ED20C25A9421DD830000B
:1049000000F089F8254A14682100002919D1244CA7
:104910002368002B03D1300000F044F82060290008
:10492000300000F03FF8431C2BD10C2330003360E3
:1049300000F072F803E0002DDFDA0C233360002072
:1049400070BD0B685B1B19D40B2B03D90B60CC1803
:10495000256003E04B688C420DD11360300000F0FD
:104960005BF8200007220B30231D9043C31AE7D0C9
:104970005A42E250E4E763600C00EFE70C0049683C
:10498000C3E70323C41C9C43A042E1D0211A30009A
:1049900000F008F8431CDBD1C7E7C046C00A00207E
:1049A000C40A0020002370B5064C050008002360EF
:1049B00000F056FB431C03D12368002B00D02B6072
:1049C00070BDC046CC0A00200EB400B50B499CB0A7
:1049D0001DAB02900690079104910948094904CB48
:1049E0000591006802A9019300F07AF80023029A69
:1049F00013701CB008BC03B01847C046FFFFFF7F10
:104A0000180000200802FFFF0023C25C0133002AC7
:104A1000FBD1581E7047704770470000F0B58E6894
:104A200085B007000C00039201939E423CD890236E
:104A30008A89DB001A4234D00325096923685B1A8E
:104A40000293636902985D43EB0F5D19019B6D1042
:104A500001331B18AB4200D91D00530532D5290084
:104A60003800FFF741FF061E09D10C233B604023AD
:104A70000120A28940421343A38105B0F0BD029AF0
:104A80002169FFF7D5FEA389144A1A4080231343F6
:104A9000A381029B2661F61826606561019EED1ACE
:104AA000A560019B9E4200D9019E320003992068B7
:104AB00000F095FAA36800209B1BA36023689E1951
:104AC0002660DAE72A00380000F09CFA061EE0D1E2
:104AD00021693800FFF7BEFEC7E7C0467FFBFFFF36
:104AE000F0B59FB0029005938B890F0016001B064E
:104AF00011D50B69002B0ED14021FFF7F5FE386070
:104B00003861002805D10C23029A013813601FB0C8
:104B1000F0BD40237B61002306AC636120336376E4
:104B20001033A37635002B78002B01D0252B46D1EE
:104B3000AB1B04930CD0320039000298FFF76EFFD4
:104B4000431C00D1AEE06269049B944663446361F8
:104B50002B78002B00D1A5E0012200235242626095
:104B600002A9543252186E1C2360E360A3601370D4
:104B7000A36531780522544800F026FA751C0028F8
:104B80001FD12268D30604D5532302A95B18202124
:104B90001970130704D5532302A95B182B21197030
:104BA00033782A2B16D0350000210A20E3682A78B2
:104BB0006E1C303A092A4ED9002918D010E0013570
:104BC000B1E7414B2268C01A01238340134323609D
:104BD0002E00CEE7059B191D1B680591002B01DBFC
:104BE000099304E05B42E3600223134323602B78C4
:104BF0002E2B0AD16B782A2B35D1059B02351A1D35
:104C00001B680592002B2BDB0793304E297803227B
:104C1000300000F0D9F9002806D04023801B8340E3
:104C200022680135134323602978062228486E1C28
:104C3000217600F0C9F900283CD0264B002B25D165
:104C40000722059B07339343083305936369039A4F
:104C50009B18636166E7434301219B183500A6E773
:104C600001235B42D0E700230A201A00013563606C
:104C700029786E1C3039092903D9002BC5D0079239
:104C8000C3E74243012352183500F1E705AB009317
:104C90003A00114B2100029800E000BF0390039BF3
:104CA0000133D3D1BB890B985B0600D42FE70120D9
:104CB00040422CE705AB00933A00074B21000298D5
:104CC00000F07AF8EAE7C04630550000365500009B
:104CD0003A550000000000001D4A0000F7B515001D
:104CE00001938A680B6900900C00934200DA13006C
:104CF00022002B6043321278002A01D001332B604E
:104D000023689B0602D52B6802332B600627236895
:104D10001F4027D0230043331B785A1E934122683B
:104D2000920630D42200019943320098089EB04781
:104D3000431C25D0062320682A68E168034000252B
:104D4000042B03D18D1AEB43DB171D40A3682269A6
:104D5000934201DD9B1AED180027BD4220D10020AF
:104D600010E00137E3682A689B1ABB42D2DD2200BB
:104D70000123193201990098089EB047431CF0D1D5
:104D800001204042FEBD3020E1184331087021006F
:104D90005A1C45310978A218433202331170C1E719
:104DA000220001231A3201990098089EB047431C43
:104DB000E6D00137D1E70000F0B589B004920A00CF
:104DC00043320593039002920A7E0C000E9B6E2ADA
:104DD00000D186E01FD8632A33D008D8002A00D13A
:104DE0008CE0582A4DD0250042352A7030E0642AE4
:104DF00001D0692AF7D1196825680A1D280629D526
:104E000008681A60002803DA2D23029A40421370C2
:104E10006B4E0A274FE0732A74D008D86F2A1FD030
:104E2000702AE0D1202209680A43226003E0752A33
:104E300016D0782AD7D12200782145321170614EE0
:104E400022E025001A684235111D196013682B7085
:104E5000012365E008681A606906D3D500B2D1E77E
:104E600019682568081D186008682E0605D5544E77
:104E700008276F2A1BD00A2719E06D06F7D580B2E4
:104E8000F5E745314E4E0A7018682268011D00682A
:104E90001960150621D5D30702D520231A432260B5
:104EA0001027002803D1202322689A432260230080
:104EB000002243331A706368A360002B58DB04227E
:104EC000216891432160002854D1029D002B5AD0C3
:104ED0002500337842352B7055E05506DBD580B27E
:104EE000D9E71A680D68101D4969186013682E0605
:104EF00001D5196002E06D06FBD519800023029DE3
:104F000023614FE01A68111D19601568002162685D
:104F1000280000F059F8002801D0401B6060636849
:104F200023610023029A13703CE023692A0004994C
:104F30000398059DA847431C3ED023689B0715D4C2
:104F4000079BE068984239DA180037E02200012315
:104F5000193204990398059EB047431C2CD00135A3
:104F6000E368079A9B1AAB42F0DCE9E70025F7E714
:104F70000028ADD0029D3900FFF71CFC735C013D99
:104F80002B700028F7D1082F09D12368DB0706D53D
:104F900063682269934202DC3023013D2B70029B3F
:104FA0005B1B2361059B07AA00932100049B0398C8
:104FB000FFF794FE431CB8D10120404209B0F0BD78
:104FC0004155000052550000C9B28218904201D1EB
:104FD0000020704703788B42FBD00130F6E710B514
:104FE000884202D98B18984203D3002307E08B5CD8
:104FF0008354013AFBD210BDCC5CC45401339A42B5
:10500000FAD1F8E7F8B507000D001600002905D120
:105010001100FFF769FC04002000F8BD002A03D14D
:10502000FFF718FC3400F7E700F012F82C00B0424C
:10503000F2D231003800FFF757FC041EECD02900F3
:105040003200FFF7F5FB29003800FFF703FCE3E728
:105050000B1F1B68181F002B01DA0B58C018704774
:10506000044A1368002B00D1034B18181060180075
:105070007047C046C80A0020D00A0020F8B5C046D4
:10508000F8BC08BC9E467047F8B5C046F8BC08BCE2
:105090009E467047253032780073746172742072B6
:1050A000656C6179696E67207061636B65743A2025
:1050B00000000000000000000000000013230000BA
:1050C000052A00004D220000852200006122000018
:1050D000792200006D22000051220000952200007C
:1050E000DD220000912200000000000016000000F8
:1050F000080000001C000000FF000004000406007F
:105100000000000017000000080000001C00000064
:10511000FF00010401040700000000000A00000075
:10512000080000001C000000120000010001FF0048
:10513000000000000B000000080000001C00000040
:10514000130001010101FF00010000000A0000003E
:10515000080000001C000000FF00000500050A0018
:10516000010000000B000000080000001C0000000F
:10517000FF00010501050B00000000001400000005
:10518000080000002C000000FF00020002000400E4
:105190000000000015000000080000002C000000C6
:1051A000FF000300030005000000000010000000E5
:1051B000020000001C000000FF00000200020000CE
:1051C00000000000110000000200000004000000C8
:1051D000FF00FFFFFFFF01000000000013000000C0
:1051E000020000001C000000FF0001030103FF009B
:1051F00000000000080000000300000004000000A0
:105200001000FFFFFFFF1000000000000900000079
:1052100003000000040000001100FFFFFFFFFF007B
:10522000010000001700000003000000040000005F
:10523000FF00FFFFFFFFFF0001000000160000005D
:105240000300000004000000FF00FFFFFFFFFF005D
:105250000000000002000000010000000600000045
:105260000000FFFFFFFFFF00010000000200000040
:1052700001000000040000000A00FFFFFFFF020021
:105280000100000003000000010000000400000015
:105290000B00FFFFFFFF0300000000000400000000
:1052A000010000001C000000040000000000FF00DE
:1052B0000000000005000000010000001C000000CC
:1052C000050001000100FF000000000006000000D2
:1052D00001000000040000000600FFFFFFFFFF00C8
:1052E00000000000070000000100000004000000B2
:1052F0000700FFFFFFFFFF00000000001800000094
:105300000600000000000000FF00FFFFFFFFFF009D
:10531000000000001900000006000000000000006E
:10532000FF00FFFFFFFFFF00000000001200000071
:105330000800000004000000FF00FFFFFFFFFF0067
:10534000000000000300000008000000040000004E
:10535000FF00FFFFFFFFFF00000000000C00000047
:105360000300000000000000FF00FFFFFFFFFF0040
:10537000000000000D00000003000000000000001D
:10538000FF00FFFFFFFFFF00000000000E00000015
:105390000800000000000000FF00FFFFFFFFFF000B
:1053A000000000000F0000000300000000000000EB
:1053B000FF00FFFFFFFFFF00000000001B000000D8
:1053C0000800000000000000FF00FFFFFFFFFF00DB
:1053D000000000001C0000000800000000000000A9
:1053E000FF00FFFFFFFFFF000100000008000000BA
:1053F0000800000000000000FF00FFFFFFFFFF00AB
:105400000100000009000000010000001800000079
:105410000300010401040900000000000000000076
:105420000800000000000000FF00FFFFFFFFFF007A
:105430000000000001000000080000000000000063
:10544000FF00FFFFFFFFFF000D0A0000000000004B
:1054500000000000B72D0000ED2F0000B32D00006C
:10546000D12F0000B12F0000293000000D300000C6
:10547000DF2F0000CD2D0000352D0000F92E00009B
:105480005D2D0000B12D0000F0FFFFFF00000000C7
:10549000A12F0000E92E00004F3000004D30000029
:1054A000A12D00000000000000000000D533000026
:1054B000913600007936000057360000393200007E
:1054C0003B3200002933000041726475696E6F2021
:1054D0004D4B525A65726F000403090441726475A2
:1054E000696E6F204C4C430012010002EF02014034
:1054F00041234F8000010102030100000000000071
:105500000000000041450000052A0000674400003B
:10551000234400003D440000F54500000542000022
:10552000F5410000894200001F420000F1410000E7
:10553000232D302B2000686C4C006566674546477C
:1055400000303132333435363738394142434445FF
:10555000460030313233343536373839616263646E
:08556000656600000000000078
:1055680040420F00FFFFFFFFFFFFFFFF00C20100E7
:1055780000000800FFFFFFFF1C00002000000000E3
:105588000000000000000000000000000000000013
:105598000000000000000000000000000000000003
:1055A80000000000000000000000000000000000F3
:1055B80000000000000000000000000000000000E3
:1055C80000000000000000000000000000000000D3
:1055D800000000000000000000000000DD200000C6
:1055E80099230000DD23000001310000E1410000A3
:1055F800B5200000000000000000000000000000CE
:040000030000247560
:00000001FF
